:02000000742C5E
:10000800FF00030E8301DC000A08DD008A01700886
:10001800A5007108A4007208A3007C08A2007D084E
:10002800A100081F46284130FC00EE30FD00FD0B02
:100038001B28FC0B1B28000000302706031D262860
:1000480000302606031D2C28A60A0319A70A4228F1
:1000580000302706031D322801302606031D3828E4
:10006800A60A0319A70A422800302706031D3E28BE
:1000780002302606031D4228A601A7010130D3003D
:100088000030D400881E55284130FC00EE30FD00B9
:10009800FD0B4C28FC0B4C2800000130CF00003031
:1000A800D0000B150B1D59280B11D10A0319D20AC0
:1000B800C70A0319C80A00305206031D6528F13023
:1000C8005106031D7B280F08CC00CB010E08F00059
:1000D800F101F00DF10D7010F00DF10D70107008B8
:1000E800CB047108CC048F018E01D101D2010030FC
:1000F8004806031D8128A0304706031D89280130C2
:10010800D5000030D600C701C8010C308100250891
:10011800F0002408F1002308F2002208FC0021085E
:10012800FD005D088A005C0E8300FF0E7F0E09004B
:10013800831203136308930083161418A428A028B5
:0801480083121308F000080007
:10015000831203135708E3009C20091409100800B8
:100160000F3083120313D705F0306205F0007008DA
:10017000D704D715A820D711A8200F30D7056208BB
:10018000F000F00D7010F00D7010F00D7010F00D0B
:100190007010F030F0057008D704D715A820D711DB
:0401A000A82008008B
:0E01A400F201F101F001F801F3010030080052
:1001B2007B15FB1FE3280130F300F201F101F0018E
:0801C200FA0DF20CFF300800F9
:0801CA00FA1FF21300300800D7
:1001D200A0017208031DFE287108F2007008F100E8
:1001E200F001A0157208031DFE287108F200F1014A
:1001F200A0112016720803190C292008F302031D0E
:10020200031C10290310F21B1429F00DF10DF20D3D
:10021200F30B042910290130FC00D22017290230E7
:0E022200FC00D92017290430FC00E52008005C
:0E0230008312031357156108E200B020080086
:10023E007B14FB1F2A29F201FA1FFF30F200F10096
:0A024E00F000FA0DF20CFF3008007A
:0E0258008312031357116108E200B020080062
:10026600FB14FB1F3D29FF30F300F200F100F00004
:08027600FA0DF20CFF30080044
:10027E00831203137008F8007108F000F101F20107
:10028E00F301FB01FC019630F300FA017008F10056
:0C029E007808F000F801F201E9200800E7
:0E02AA008312031359088A00580882000800C6
:1002B80083120313FB01FC01FA01730803199B293C
:1002C800F2178E30F302F31B6C2903196C299E294F
:1002D800F309F30A08307302031C8129F300F10DB6
:1002E8007208F100F20108307302031C8129F10D34
:1002F800F1017308031D031089297308031989295B
:100308000310F20CF10CF30B84297B1B711C93294D
:10031800031C9329F10A0319F20AF21BAA29FA1FEE
:10032800AD29F209F109F10A0319F20AAD29F2011E
:10033800F101AD297B14FB1FB029F201FA1FB02986
:10034800FF30F200F100FA0DF20CB0290130FC0088
:10035800B2290030FC00B229FF30FC00FC08031968
:0E036800B6291F217108F0007208F10008008C
:1003760083120313FB017308031D77080319122A5E
:1003860072087606FA007708F3077E30031CCF2939
:10039600F3020318152AD229F302031C182A72083D
:1003A600F8007108FC007008FD00F817F617031036
:1003B600F201F101F0011830A0007D1CEC2974084F
:1003C600F00775080318750FF10776080318760FFE
:1003D600F207F20CF10CF00CF80CFC0CFD0C0310FF
:1003E600A00BE029F21BFC29F80DF00DF10DF20D22
:1003F600F3037B1B701C0E2AF81F0E2AF00A031942
:10040600F10A0319F20A031D0E2AF20CF10CF00C84
:10041600F30A0319152AFA1FF21300301A2A0130BB
:10042600D2201A2A023033211A2A0430D920000099
:020436000800BC
:1004380083120313600899000C1A232A202A0C122D
:020448000800AA
:0C044A00C03083120313E1002C210800D5
:10045600831203136008840000080319392A600810
:0E04660084000008E1001821E00A2B2A08009B
:10047400710DF80DF90D7408F8027508031C750F59
:10048400F902F00DF10D0F30FC00710DF80DF90DAE
:100494007408701C532AF8027508031C750FF902BE
:1004A400582AF80775080318750FF907F00DF10DB0
:1004B400FC0B472A7018642A7408F8077508031897
:0804C400750FF90700000800A4
:1004CC00013083120313E1002C210D30FC00FB30B2
:1004DC00FD00FD0B6F2AFC0B6F2A000000000230A0
:0604EC00E1002C210800D4
:1004F20083120313F801F9011030FC00710DF80D9D
:10050200F90D7408F8027508031C750FF902031837
:10051200912A7408F80775080318750FF907031074
:0A052200F00DF10DFC0B7F2A08001C
:10052C000030831203132706031D9E2A0030260673
:10053C00031DB32A66220D30FC00FB30FD00FD0BC1
:10054C00A52AFC0BA52A000000003730E0002B2266
:10055C0025222830E0002B22E02A00302706031D3C
:10056C00B92A01302606031DCA2A66220D30FC006A
:10057C00FB30FD00FD0BC02AFC0BC02A0000000064
:10058C003730E0002B22E02A00302706031DD02A4A
:10059C0002302606031DE02A66220D30FC00FB30DB
:1005AC00FD00FD0BD72AFC0BD72A000000002830D9
:0605BC00E0002B22080004
:1005C200831203137408003A031DF02A7508003AD7
:1005D200031DF02AFF30F0007F30F100492B831217
:1005E2000313FD01F901F8017108700403190034C5
:1005F20071087506FA00FA1BFD09FB01F51F062BAF
:10060200F409F509F40A0319F50AF11F0D2BF00993
:10061200F109F00A0319F10A71087504FA00FA1BCC
:10062200222B3A227B18352BFD1F0034F009F109E9
:10063200F00A0319F10AF809F909F80A0319F90A83
:100642000034F51F312BF11B2D2B7108F9007008B6
:10065200F800F101F001152BF101F001F00A00346C
:10066200F109F009FB0A122BF80A0319F90A7408B6
:100672007802031D152B75087902031D152BF9014C
:10068200F801F00A0319F10AF11F152B0000FF34DB
:0206920008005E
:10069400013083120313DE000030DF0080305F0678
:1006A400F00080307002031D592B0F305E020318D6
:1006B400652B5E08373E84000008E0001C22DE0A39
:0E06C4000319DF0A502B0D30E0001C22080045
:1006D200831203139F149F1C6F2B6C2B2130FD0080
:1006E200FD0B712B1E08F100F00183161E08F007A6
:1006F2000318F10A3F21F830F400FF30F500793099
:10070200F6007D30F700BB215C217008DA00710829
:04071200DB00080000
:1007160083120313571109108230FC00DD30FD00EF
:10072600FD0B932BFC0B932B000000003030D70001
:100736003830D700A820D711A8200D30FC00FB3098
:10074600FD00FD0BA42BFC0BA42B00000000D7150D
:10075600A820D711A8200D30FC00FB30FD00FD0BB2
:10076600B22BFC0BB22B00000000D715A820D71126
:10077600A8200D30FC00FB30FD00FD0BC02BFC0B50
:10078600C02B000000002030D7002830D700A8205A
:10079600D711A8200D30FC00FB30FD00FD0BD12B3E
:1007A600FC0BD12B000000002830E1002C210D307D
:1007B600FC00FB30FD00FD0BDE2BFC0BDE2B0000EE
:1007C60000000130E1002C210D30FC00FB30FD0063
:1007D600FD0BEB2BFC0BEB2B000000000C30E100BB
:1007E6002C210D30FC00FB30FD00FD0BF82BFC0B23
:0E07F600F82B000000000630E1002C21080066
:10080400203083160313980080308312980005303B
:0C0814008316990083120C128C1208004D
:100820008030831203139F00803083169F00831251
:0A0830001F119F111F121F14080072
:10083A0083120313941114119410141094161412A1
:0C084A00831614179413871187120800FE
:100856006030831603138F000130031788000313DB
:1008660085140713871708178816081009108312AE
:100876000810831687140C30831281008E018F01B5
:1008860003309000A0308B001730831681000800DB
:1008960083120313DE01DF0180305F06F000803033
:1008A6007002031D582C0E305E020318642C5E087D
:1008B600283E84000008E0001C22DE0A0319DF0A35
:0A08C6004F2C0D30E0001C2208004A
:1008D00055218A110A128000840AD80A0319D90AFC
:0808E000F003031D682C080061
:1008E80072252B24022410241D248B2369234E08EF
:1008F8005B06031D812C5A084D060319BA2C5A08A9
:10090800CD005B08CE005B08003C031D8D2C5A0807
:10091800633C0318922C3130BE00942C2030BE006A
:100928000A30F4000030F5005A08F0005B08F100C6
:1009380079220A30F4000030F50079227808F000B6
:100948007908F10030307007BF000A30F400003039
:10095800F5005A08F0005B08F10079227808F000E9
:100968007908F10030307007C00096224A084C061A
:10097800031DC02C4B0849060319FC2C4B08C90061
:100988004C08CA008030F00080304C067002031D0D
:10099800CF2C4B08633C0318D42C3130AF00D62C35
:1009A8002030AF000A30F4000030F5004B08F000AA
:1009B8004C08F100E1220A30F4000030F500E12291
:1009C8007808F0007908F10030307007B0000A307C
:1009D800F4000030F5004B08F0004C08F100E1226B
:1009E8007808F0007908F10030307007B1009622DD
:1009F800530854040319032D9622D301D401550832
:100A080056040319272DD501D60100302706031DEA
:100A18000F2D00302606031D142D4A234B24272DA5
:100A280000302706031D1A2D01302606031D1E2D32
:100A38004A23272D00302706031D242D02302606C1
:100A4800031D272D4B244F08500403193A2D662205
:100A5800881A302D08142C2D08108F018E01D10111
:100A6800D201CB01CC01CF01D00196227A2C3B2DAB
:100AE40026308400313083120313F0004130D800E3
:080AF4000530D9006824080058
:040A82000034003408
:100A86002034423465346134743420343D342034A7
:0E0A9600303430342034623470346D34003427
:100AA4002034543465346D34703420343D3420346F
:100AB400303430342E343034303420344334003441
:040AC40000340034C6
:040AC80000340034C2
:040ACC0000340034BE
:040AD00000340034BA
:040AD40000340034B6
:040AD80000340034B2
:040ADC0000340034AE
:040AE00000340034AA
:04400E00F22F000786
:00000001FF
